:100000000C945D000C9485000C9485000C94850084
:100010000C9485000C9485000C9485000C9485004C
:100020000C9485000C9485000C9485000C9485003C
:100030000C9485000C9485000C9485000C9485002C
:100040000C94F1020C9485000C9461030C943B0316
:100050000C9485000C9485000C9485000C9485000C
:100060000C9485000C9485000000000024002700FB
:100070002A0000000000250028002B0004040404CE
:100080000404040402020202020203030303030342
:10009000010204081020408001020408102001021F
:1000A00004081020000000080002010000030407FB
:1000B0000000000000000000930311241FBECFEFDA
:1000C000D8E0DEBFCDBF11E0A0E0B1E0EAE6FCE0A1
:1000D00002C005900D92AC3AB107D9F722E0ACEA24
:1000E000B1E001C01D92AB35B207E1F710E0CDE5FC
:1000F000D0E004C02197FE010E942806CC35D1072C
:10010000C9F70E94D2030C9433060C94000090E0CF
:10011000FC01EC55FF4F2491FC01E057FF4F349157
:10012000FC01E458FF4FE491EE2309F43CC0222384
:1001300039F1233091F038F42130A9F0223001F563
:1001400084B58F7D12C0273091F02830A1F0243083
:10015000B9F4809180008F7D03C0809180008F77FB
:10016000809380000DC084B58F7784BD09C08091D5
:10017000B0008F7703C08091B0008F7D8093B00076
:10018000F0E0EE0FFF1FEE58FF4FA591B4919FB71F
:10019000F894611104C08C913095382302C0EC9121
:1001A0003E2B3C939FBF08950F931F93CF93DF93F4
:1001B000C7E0D0E0082F10E0B8010C2E02C0759502
:1001C00067950A94E2F76170809153020E9487005C
:1001D00061E0809155020E94870060E080915502A5
:1001E0000E948700219740F7DF91CF911F910F91D7
:1001F0000895CF93DF9390E0FC01E057FF4F2491E7
:10020000FC01E458FF4F8491882361F190E0880F4E
:10021000991FFC01E859FF4FC591D491FC01EE589C
:10022000FF4FA591B491611109C09FB7F8948881DF
:10023000209582238883EC912E230BC0623061F4D9
:100240009FB7F8948881322F309583238883EC916F
:100250002E2B2C939FBF06C08FB7F894E8812E2BCE
:1002600028838FBFDF91CF9108953FB7F894809195
:10027000B2019091B301A091B401B091B50126B53E
:10028000A89B05C02F3F19F00196A11DB11D3FBFCE
:10029000BA2FA92F982F8827820F911DA11DB11D5C
:1002A000BC01CD0142E0660F771F881F991F4A9558
:1002B000D1F708958F929F92AF92BF92CF92DF9223
:1002C000EF92FF926B017C010E9435014B015C01B2
:1002D000C114D104E104F104F1F00E943501DC0104
:1002E000CB0188199909AA09BB09883E9340A10549
:1002F000B10570F321E0C21AD108E108F10888EED7
:10030000880E83E0981EA11CB11CC114D104E10425
:10031000F10419F7DDCFFF90EF90DF90CF90BF9001
:10032000AF909F908F900895CF92DF92EF92FF92BF
:100330000F931F93CF93DF936C017A018B01C0E081
:10034000D0E0CE15DF0581F0D8016D918D01D60189
:10035000ED91FC910190F081E02DC6010995892B6A
:1003600011F02196EECF7E01C701DF91CF911F9151
:100370000F91FF90EF90DF90CF900895089580E067
:1003800090E00895FC01538D448D252F30E0842F9B
:1003900090E0821B930B541710F0CF9608950197AD
:1003A0000895FC01918D828D981761F0828DDF0197
:1003B000A80FB11D5D968C91928D9F5F9F73928F58
:1003C00090E008958FEF9FEF0895FC01918D828D4D
:1003D000981731F0828DE80FF11D858D90E008951A
:1003E0008FEF9FEF0895FC01918D228D892F90E072
:1003F000805C9F4F821B91098F739927089586EB2C
:1004000091E00E94F30121E0892B09F420E0822F82
:100410000895FC01848DDF01A80FB11DA35ABF4FC1
:100420002C91848D90E001968F739927848FA689F3
:10043000B7892C93A089B1898C91837080648C9347
:10044000938D848D981306C00288F389E02D8081F6
:100450008F7D80830895EF92FF920F931F93CF9328
:10046000DF93EC0181E0888F9B8D8C8D981305C004
:10047000E889F989808185FD26C0F62E0B8D10E074
:100480000F5F1F4F0F731127E02E8C8DE8120CC0E9
:100490000FB607FCFACFE889F989808185FFF5CF8F
:1004A000CE010E940902F1CF8B8DFE01E80FF11DF4
:1004B000E35AFF4FF0829FB7F8940B8FEA89FB89CC
:1004C000808180620AC09FB7F894EE89FF896083BB
:1004D000E889F98980818370806480839FBF81E08F
:1004E00090E0DF91CF911F910F91FF90EF900895D1
:1004F000CF93DF93EC01888D8823C9F0EA89FB89CB
:10050000808185FD05C0A889B9898C9186FD0FC0C1
:100510000FB607FCF5CF808185FFF2CFA889B98996
:100520008C9185FFEDCFCE010E940902E7CFDF91CC
:10053000CF91089580E090E0892B29F00E94FF017F
:1005400081110C94000008950F931F93CF93DF93B4
:100550008C0182E40E94D40060E0809155020E94E8
:10056000870061E0809159020E948700E801095FDD
:100570001F4F89910E94D400C017D107D1F760E0C6
:10058000809153020E94870060E080915902DF91C0
:10059000CF911F910F910C94870088E391E00E9406
:1005A000A4028FE391E00E94A40286E491E00E94FD
:1005B000A4028DE491E00C94A402009769F0FC0180
:1005C00001900020E9F73197AF01481B590BBC019E
:1005D00086EB91E00C94940180E090E008950E94F5
:1005E0002E061F920F920FB60F9211242F933F9356
:1005F0008F939F93AF93BF938091AE019091AF0182
:10060000A091B001B091B1013091AD0123E0230F71
:100610002D3720F40196A11DB11D05C026E8230F3A
:100620000296A11DB11D2093AD018093AE01909360
:10063000AF01A093B001B093B1018091B20190914C
:10064000B301A091B401B091B5010196A11DB11DF6
:100650008093B2019093B301A093B401B093B5011C
:10066000BF91AF919F918F913F912F910F900FBEAE
:100670000F901F9018951F920F920FB60F92112492
:100680002F933F934F935F936F937F938F939F939A
:10069000AF93BF93EF93FF9386EB91E00E94090223
:1006A000FF91EF91BF91AF919F918F917F916F914A
:1006B0005F914F913F912F910F900FBE0F901F9020
:1006C00018951F920F920FB60F9211242F938F93AC
:1006D0009F93EF93FF93E091C601F091C701808152
:1006E000E091CC01F091CD0182FD12C0908180910A
:1006F000CF018F5F8F732091D001821751F0E0916D
:10070000CF01F0E0EA54FE4F958F8093CF0101C0F6
:100710008081FF91EF919F918F912F910F900FBE4C
:100720000F901F901895E6EBF1E01382128288EE8D
:1007300093E0A0E0B0E084839583A683B78388E547
:1007400091E09183808385EC90E09587848784ECA9
:1007500090E09787868780EC90E0918B808B81EC8E
:1007600090E0938B828B82EC90E0958B848B86EC6F
:1007700090E0978B868B118E128E138E148EE3E58C
:10078000F2E083E090E09183808384E090E09383C3
:10079000828386E090E09583848385E090E0978370
:1007A00086830895CF93DF93CDB7DEB7A1970FB6B9
:1007B000F894DEBF0FBECDBF789484B5826084BD4F
:1007C00084B5816084BD85B5826085BD85B5816055
:1007D00085BD80916E00816080936E0010928100D3
:1007E000809181008260809381008091810081608E
:1007F000809381008091800081608093800080914F
:10080000B10084608093B1008091B00081608093DA
:10081000B00080917A00846080937A0080917A00A1
:10082000826080937A0080917A00816080937A0060
:1008300080917A00806880937A001092C1001092B3
:10084000AC01E091C601F091C70182E08083E091A4
:10085000C601F091C7011082E091C201F091C3017D
:100860001082E091C401F091C50180E18083109273
:10087000CE01E091CA01F091CB0186E08083E09146
:10088000C801F091C901808180618083E091C80135
:10089000F091C901808188608083E091C801F09166
:1008A000C901808180688083E091C801F091C9010D
:1008B00080818F7D808361E0809153020E94F900E6
:1008C00061E0809155020E94F90061E08091590237
:1008D0000E94F90060E0809157020E94F90061E0F7
:1008E000809157020E94870060E0809153020E942D
:1008F000870060E0809155020E94870061E080914E
:1009000059020E94870060E0809159020E9487008E
:1009100086E691E00E94DD0288EA91E00E94DD0215
:1009200086EA91E00E94DD0288EA91E00E94DD0201
:1009300086EA91E00E94DD0215E00E94CD026CE2A1
:1009400071E080E090E00E945A0180E091E00E9416
:10095000A40287E091E00E94A4028EE091E00E9450
:10096000A40285E191E00E94A4026CE271E080E0C3
:1009700090E00E945A01115001F70E94CD0268EBED
:100980007BE080E090E00E945A011AE0C12ED12C59
:10099000E12CF12C00E010E089EA91E00E94DD02F8
:1009A0002091AC0130E040E050E019A25E0181E20C
:1009B000A80EB11CCA01B901A70196010E94060642
:1009C000605DF50162935F01211531054105510517
:1009D00089F7CF010E94DD0286EA91E00E94DD02E4
:1009E0008CE191E00E94A40283E291E00E94A402C3
:1009F0008AE291E00E94A40281E391E00E94A402B5
:100A000080911C01882329F090E09595879580932B
:100A10001C0180911C01811107C080911D0190E093
:100A20009595879580931D0180911D01811107C0C7
:100A300080911E0190E09595879580931E0180918D
:100A40001E01811107C080911F0190E09595879547
:100A500080931F0180911F01811107C080912001A7
:100A600090E09595879580932001809120018111D8
:100A700006C0809121018695807780932101809125
:100A80002101811107C08091230190E09595879500
:100A90008093230180912301811107C0809124015B
:100AA00090E0959587958093240180912401811190
:100AB00007C08091250190E0959587958093250149
:100AC00080912501811107C08091260190E09595C4
:100AD00087958093260180912601811107C080911E
:100AE000270190E0959587958093270180912701B4
:100AF000811107C080912A0190E095958795809398
:100B00002A0180912A01811107C080912B0190E078
:100B10009595879580932B0180912B01811107C0BA
:100B200080912C0190E09595879580932C01809180
:100B30002C01811107C080912D0190E0959587953A
:100B400080932D0180912D01811107C080912E018C
:100B500090E09595879580932E0180912E018111CB
:100B600007C08091310190E0959587958093310180
:100B700080913101811107C08091320190E09595FB
:100B800087958093320180913201811107C0809155
:100B9000330190E0959587958093330180913301DF
:100BA000811107C08091340190E0959587958093DD
:100BB000340180913401811107C08091350190E0AA
:100BC000959587958093350164E670E080E090E02C
:100BD0000E945A018091AC018F5F8093AC018C37E9
:100BE00090F0E8E3F1E0ACE1B1E081918D9381E038
:100BF000E335F807D1F76CED75E080E090E00E94F6
:100C00005A01F80109950E949A02C6CEA1E21A2E55
:100C1000AA1BBB1BFD010DC0AA1FBB1FEE1FFF1FA0
:100C2000A217B307E407F50720F0A21BB30BE40BF0
:100C3000F50B661F771F881F991F1A9469F7609537
:100C40007095809590959B01AC01BD01CF010895F1
:100C5000EE0FFF1F0590F491E02D099481E090E0E4
:0A0C6000F8940C943306F894FFCFCB
:100C6A000000000000000000000000000001000079
:100C7A00000000000200000000000003FFFFFFFF69
:100C8A00FFF000FFFFFFFFFF0001FFFFFFFFFF0074
:100C9A0002FFFFFFFFFF0003FFFFFFFFFFF000FF60
:100CAA00FFFFFFFF0001FFFFFFFFFF0002FFFFFF43
:100CBA00FFFF0003000000002B029401C20178022A
:100CCA00F301D101E5017869616F6C6162612C20E1
:100CDA0053617672696E2050616E61736F6E6963DB
:100CEA002043617220417564696F2C204C4337346C
:100CFA003835342C204C43442043434220627573D8
:0C0D0A002074657374000D0A00440000A2
:00000001FF
